:020000040000FA
:100000008B0107309F008316013085000030860089
:100010008312003086008510051185150512AF206A
:100020007F208030EE00A1204F30EE00992050302C
:10003000EE0099205430EE0099202030EE009920F7
:100040004530EE0099204430EE0099204D30EE000E
:100050009920C130EE00A1204E30EE0099206F3083
:10006000EE0099207430EE0099206330EE00992064
:100070006830EE0099206530EE0099207230EE0075
:1000800099209630EE00A1206230EE009920793060
:10009000EE0099202030EE0099204330EE009920A8
:1000A0004D30EE0099205030EE009920D730EE0010
:1000B000A1205230EE0099206530EE009920763074
:1000C000EE0099202030EE0099203230EE00992089
:1000D0002E30EE0099203630EE009920EA01BA2049
:1000E0006A08ED00EA01BA206A08EE006D08003CDB
:1000F000031999206D08013C0319A1206E28851071
:100100000511AA2030308600B520AF20303086009F
:10011000B520AA2030308600B520AA2038308600CD
:10012000B5200C308600B52006308600B520AF2003
:10013000080085100515AA206E088600B520AA20A3
:10014000080085100511AA206E088600B520051547
:10015000AA2008002A30E800E80BAC280800283064
:10016000E900AA20E90BB2280800851400008510D8
:10017000AA2008008B128B1381016400831658306B
:10018000810083120830EB000518C428E23081009A
:100190000B110B1DC9280518C428CE3081000B1186
:1001A0000B1DD0280B110508EC00EC0CEA0DEB0B35
:0401B000CD2808004E
:02400E00513F20
:00000001FF
